S01800004D756C746953657269616C5F6275726E2E737265638B
S11300000C9435000C945D000C945D000C945D0020
S11300100C945D000C945D000C945D000C945D00E8
S11300200C945D000C945D000C945D000C945D00D8
S11300300C945D000C945D000C945D000C945D00C8
S11300400C949C020C945D000C94A8010C94DA01AD
S11300500C945D000C945D000C945D000C945D00A8
S11300600C945D000C945D000A0211241FBECFEFB6
S1130070D8E0DEBFCDBF11E0A0E0B1E0E6E9F6E0F4
S113008002C005900D92AA32B107D9F721E0AAE285
S1130090B1E001C01D92A03DB207E1F710E0C5E355
S11300A0D0E004C02197FE010E944303C433D1076A
S11300B0C9F70E9438020C9449030C94000026E00E
S11300C040E855E260E070E08AE291E00C9443017C
S11300D060E071E08AE291E00C948A02FC01918D67
S11300E0228D892F90E0805C9F4F821B91098F7332
S11300F099270895FC01918D828D981731F0828D96
S1130100E80FF11D858D90E008958FEF9FEF08951E
S1130110FC01918D828D981761F0828DDF01A80F0B
S1130120B11D5D968C91928D9F5F9F73928F90E02D
S113013008958FEF9FEF0895FC01538D448D252F73
S113014030E0842F90E0821B930B541710F0CF966D
S113015008950197089580E092E0892B49F080E0AA
S113016090E0892B29F00E94000281110C94000078
S11301700895FC01848DDF01A80FB11DA35ABF4F60
S11301802C91848D90E001968F739927848FA68992
S1130190B7892C93A089B1898C9180648C93938DB9
S11301A0848D981306C00288F389E02D80818F7DA9
S11301B080830895EF92FF920F931F93CF93DF9361
S11301C0EC0181E0888F9B8D8C8D981305C0E889A4
S11301D0F989808185FD24C0F62E0B8D10E00F5F18
S11301E01F4F0F731127E02E8C8DE8120CC00FB631
S11301F007FCFACFE889F989808185FFF5CFCE0124
S11302000E94B900F1CF8B8DFE01E80FF11DE35A76
S1130210FF4FF0820B8FEA89FB898081806207C0DF
S1130220EE89FF896083E889F9898081806480830D
S113023081E090E0DF91CF911F910F91FF90EF90BB
S11302400895CF93DF93EC01888D8823C9F0EA8960
S1130250FB89808185FD05C0A889B9898C9186FDBB
S11302600FC00FB607FCF5CF808185FFF2CFA889B8
S1130270B9898C9185FFEDCFCE010E94B900E7CFFB
S1130280DF91CF910895CF92DF92EF92FF921F9367
S1130290CF93DF93EC016A017B01122FE889F9897E
S11302A082E080834115514E61057105B1F060E033
S11302B079E08DE390E0A70196010E942103DA0121
S11302C0C9010197A109B109B695A7959795879595
S11302D09C01211580E13807A8F0E889F98910828A
S11302E060E874E88EE190E0A70196010E94210382
S11302F0DA01C9010197A109B109B695A7959795A6
S113030087959C01EC85FD853083EE85FF852083F0
S1130310188EEC89FD891083EA89FB8980818061CC
S11303208083EA89FB89808188608083EA89FB89EC
S1130330808180688083EA89FB8980818F7D8083C6
S1130340DF91CF911F91FF90EF90DF90CF900895B0
S11303501F920F920FB60F9211242F938F939F9396
S1130360EF93FF93E0913A01F0913B018081E0919A
S11303704001F091410182FD12C0908180914301BE
S11303808F5F8F7320914401821751F0E0914301F4
S1130390F0E0E65DFE4F958F8093430101C08081BC
S11303A0FF91EF919F918F912F910F900FBE0F901E
S11303B01F9018951F920F920FB60F9211242F932E
S11303C03F934F935F936F937F938F939F93AF93D9
S11303D0BF93EF93FF938AE291E00E94B900FF91EB
S11303E0EF91BF91AF919F918F917F916F915F91A9
S11303F04F913F912F910F900FBE0F901F90189522
S11304008AE291E00E946E0021E0892B09F420E049
S1130410822F0895EAE2F1E01382128288EE93E0DB
S1130420A0E0B0E084839583A683B7838DE091E058
S11304309183808385EC90E09587848784EC90E0B9
S11304409787868780EC90E0918B808B81EC90E09D
S1130450938B828B82EC90E0958B848B86EC90E07E
S1130460978B868B118E128E138E148E0895089599
S11304700E94E6020E9437020E945F00CBEAD0E0AD
S11304800E9468002097E1F30E94AB00F9CFCF925D
S1130490DF92EF92FF920F931F93CF93DF936C0140
S11304A07A018B01C0E0D0E0CE15DF0581F0D801E0
S11304B06D918D01D601ED91FC910190F081E02DBB
S11304C0C6010995892B11F02196EECF7E01C70153
S11304D0DF91CF911F910F91FF90EF90DF90CF901C
S11304E008956115710579F0FB0101900020E9F789
S11304F03197AF01461B570BDC01ED91FC91028053
S1130500F381E02D099480E090E008956BE171E0BF
S11305100C9471020F931F93CF93DF93EC010E940D
S113052071028C01CE010E948602800F911FDF911F
S1130530CF911F910F9108951F920F920FB60F92B2
S113054011242F933F938F939F93AF93BF938091E5
S1130550C8019091C901A091CA01B091CB01309119
S1130560C70123E0230F2D3720F40196A11DB11DEF
S113057005C026E8230F0296A11DB11D2093C701D3
S11305808093C8019093C901A093CA01B093CB0191
S11305908091CC019091CD01A091CE01B091CF0179
S11305A00196A11DB11D8093CC019093CD01A09320
S11305B0CE01B093CF01BF91AF919F918F913F91A5
S11305C02F910F900FBE0F901F901895789484B5BB
S11305D0826084BD84B5816084BD85B5826085BD3B
S11305E085B5816085BDEEE6F0E080818160808321
S11305F0E1E8F0E010828081826080838081816004
S11306008083E0E8F0E0808181608083E1EBF0E0CA
S1130610808184608083E0EBF0E08081816080836E
S1130620EAE7F0E080818460808380818260808357
S11306308081816080838081806880831092C10082
S11306400895A1E21A2EAA1BBB1BFD010DC0AA1F0F
S1130650BB1FEE1FFF1FA217B307E407F50720F027
S1130660A21BB30BE40BF50B661F771F881F991FA2
S11306701A9469F760957095809590959B01AC01EB
S1130680BD01CF010895EE0FFF1F0590F491E02DF9
S10906900994F894FFCF69
S11306965052494E54494E470000000000DA0047C4
S11306A6029C0021016E0088007A000D0A006E612A
S10D06B66E00696E66006F76660040
S9030000FC
