S0140000636F6E766579617262656C742E7372656302
S11300000C9461000C947E000C947E000C947E0091
S11300100C947E000C947E000C947E000C947E0064
S11300200C947E000C947E000C947E000C947E0054
S11300300C947E000C947E000C947E000C947E0044
S11300400C94FC000C947E000C947E000C947E00B6
S11300500C947E000C947E000C947E000C947E0024
S11300600C947E000C947E00000000080002010045
S1130070000304070000000000000000010204085F
S113008010204080010204081020010204081020FE
S1130090040404040404040402020202020203032A
S11300A003030303000000002300260029000000CE
S11300B00000250028002B00000000002400270079
S11300C02A0011241FBECFEFD8E0DEBFCDBF11E060
S11300D0A0E0B1E0E0E8F4E002C005900D92A630A3
S11300E0B107D9F721E0A6E0B1E001C01D92A53126
S11300F0B207E1F70E94ED000C943E020C9400005C
S113010061E087E00E94AA0160E0809104010E94FE
S1130110AA0161E086E00E94AA0160E080910201E8
S11301200E94AA0161E085E00E94AA0160E080913A
S113013000010E94AA0161E084E00E94AA0160E03B
S113014080910A010C94AA01809104010E94150275
S11301509093090180930801809102010E94150285
S113016090930701809306012091080130910901C1
S11301702115310551F460E087E00E94E60160E05A
S113018086E00E94E60160E00CC02130310579F47C
S113019061E087E00E94E60160E086E00E94E601FB
S11301A061E085E00E94E60160E084E012C000970F
S11301B011F3019781F461E086E00E94E60161E0B9
S11301C084E00E94E60161E087E00E94E60160E0CD
S11301D086E00C94E601089508950E9446010E9469
S11301E0EC000E948000C0E0D0E00E94A4002097B0
S11301F0E1F30E940000F9CF1F920F920FB60F9205
S113020011242F933F938F939F93AF93BF93809128
S11302100D0190910E01A0910F01B0911001309148
S11302200C0123E0230F2D3720F40196A11DB11DED
S113023005C026E8230F0296A11DB11D20930C01D1
S113024080930D0190930E01A0930F01B0931001C0
S11302508091110190911201A0911301B0911401A8
S11302600196A11DB11D8093110190931201A093D9
S11302701301B0931401BF91AF919F918F913F915E
S11302802F910F900FBE0F901F901895789484B5FE
S1130290826084BD84B5816084BD85B5826085BD7E
S11302A085B5816085BDEEE6F0E080818160808364
S11302B0E1E8F0E010828081826080838081816047
S11302C08083E0E8F0E0808181608083E1EBF0E00E
S11302D0808184608083E0EBF0E0808181608083B2
S11302E0EAE7F0E08081846080838081826080839B
S11302F08081816080838081806880831092C100C6
S11303000895833081F028F4813099F08230A1F08F
S113031008958730A9F08830B9F08430D1F4809101
S113032080008F7D03C0809180008F778093800050
S1130330089584B58F7702C084B58F7D84BD0895F8
S11303408091B0008F7703C08091B0008F7D80933F
S1130350B0000895CF93DF9390E0FC01E458FF4F81
S11303602491FC01E057FF4F8491882361F190E0D0
S1130370880F991FFC01E854FF4FC591D491FC01EB
S1130380E255FF4FA591B491611109C09FB7F8944C
S11303908881209582238883EC912E230BC06230C0
S11303A061F49FB7F8948881322F30958323888332
S11303B0EC912E2B2C939FBF06C08FB7F894E88145
S11303C02E2B28838FBFDF91CF9108951F93CF9356
S11303D0DF93282F30E0F901E859FF4F8491F901A8
S11303E0E458FF4FD491F901E057FF4FC491CC2357
S11303F0C1F0162F81110E948101EC2FF0E0EE0F65
S1130400FF1FE255FF4FA591B4919FB7F8941111C6
S113041004C08C91D095D82302C0EC91DE2BDC93E0
S11304209FBFDF91CF911F910895CF93DF93282F22
S113043030E0F901E859FF4F8491F901E458FF4F86
S1130440D491F901E057FF4FC491CC2391F081116D
S11304500E948101EC2FF0E0EE0FFF1FEC55FF4FDF
S1130460A591B491EC91ED2381E090E021F480E03A
S113047002C080E090E0DF91CF910895F894FFCF1F
S10904800100020003006C
S9030000FC
