:100000000C94DB000C9403010C9403010C94030189
:100010000C9403010C9403010C9403010C94030150
:100020000C9403010C9403010C94D6040C947203F9
:100030000C9403010C9403010C9403010C94030130
:100040000C9403010C9403010C9403010C94030120
:100050000C9403010C9403010C9403010C9474059B
:100060000C9403010C9403010C9403010C94030100
:100070000C9403010C9403010C9403010C940301F0
:100080000C9403010C9403010C9403010C940301E0
:100090000C9403010C9403010C9403010C940301D0
:1000A0000C9403010C9403010C9403018D0690063B
:1000B0007F0683068906B106B106B1069406980646
:1000C0009C06A206A606B106AC0612010002EF02CB
:1000D0000140412341800001010203014172647526
:1000E000696E6F204C4C430041726475696E6F20DD
:1000F00059756E00040309040000000200090F0096
:1001000000030401000C00000000000000000000DB
:1001100000000000000000040802011040804010B0
:10012000204080408008020401804020100201101D
:10013000801020404020040404040403040502024B
:100140000202040302020202060606060606040470
:10015000020202040400000000250028002B002EEB
:1001600000310000000000240027002A002D00308C
:1001700000080B0002020201000904000001020253
:1001800000000524001001052401010104240206D9
:100190000524060001070581031000400904010041
:1001A000020A000000070502024000000705830262
:1001B000400000000C0811241FBECFEFDAE0DEBFC4
:1001C000CDBF11E0A0E0B1E0E6E8F1E102C00590AA
:1001D0000D92A632B107D9F721E0A6E2B1E001C045
:1001E0001D92A639B207E1F710E0CBEDD0E004C0D4
:1001F0002197FE010E94BB08CA3DD107C9F70E94A2
:100200001E010C94C1080C94000061E08DE00C9478
:10021000B20661E08DE00E94EE0668EE73E080E0D9
:1002200090E00E94E30560E08DE00E94EE0668EE3B
:1002300073E080E090E00C94E30508950E941F06AF
:100240000E941D0186E291E00E9457050E9405016F
:10025000C0E0D0E00E9409012097E1F30E94000075
:10026000F9CF615030F02091F100FC01208301961C
:10027000F8CF289884E680932E01089540912901B3
:1002800050912A01209127013091280142175307EC
:10029000B4F49091E8009570E1F39091E80092FD3C
:1002A00019C08093F1008091290190912A01019653
:1002B0008F739927892B19F48EEF8093E800809132
:1002C000290190912A01019690932A018093290196
:1002D00081E0089580E00895DF92EF92FF920F93FE
:1002E0001F93CF93DF93D82EF92EE42E062F10E024
:1002F000C8010196880F0E943E0183E00E943E01E2
:10030000CD2DDF2D0C0F1D1FC017D10789F0E7FE83
:1003100003C0FE01849101C088810E943E01F82E35
:1003200080E00E943E018F2121968111EDCF01C016
:1003300081E0DF91CF911F910F91FF90EF90DF90BF
:1003400008958091D70081608093D70080EA8093E0
:10035000D80089B5806189BD89B5826089BD09B43D
:1003600000FEFDCF61E070E080E090E00E94E305D8
:100370008091D8008F7C80618093D8008091E000CC
:10038000807F8093E0000895CF93DF931F92CDB7D5
:10039000DEB71982CE0101960E947F070E94A7084E
:1003A000BE016F5F7F4F0E94220889810F90DF910D
:1003B000CF9108952FB7FC012083F8946770609364
:1003C000E9000895CF93DF931F92CDB7DEB7682F72
:1003D000CE0101960E94DA018091F20099819FBFBF
:1003E0000F90DF91CF910895EF92FF920F931F939B
:1003F000CF93DF931F92CDB7DEB790912D01992354
:1004000011F057FF03C08FEF9FEF29C08A017B01D6
:10041000682FCE0101960E94DA012091F20030E0AF
:10042000021713070CF49801822FF70194E681500C
:1004300038F0289890932E014091F1004193F7CF26
:100440002115310521F08091F200882321F0898166
:100450008FBFC90104C08BE68093E800F8CF0F90EE
:10046000DF91CF911F910F91FF90EF900895CF935F
:10047000DF931F92CDB7DEB741E050E0BE016F5F62
:100480007F4F0E94F401019719F4898190E002C026
:100490008FEF9FEF0F90DF91CF910895CF93DF9370
:1004A0001F92CDB7DEB7682FCE0101960E94DA0108
:1004B0009091E800892F807295FF04C09091F2001E
:1004C00080E4891B99819FBF0F90DF91CF910895A0
:1004D0005F926F927F928F929F92AF92BF92CF92D4
:1004E000DF92EF92FF920F931F93CF93DF931F92B0
:1004F000CDB7DEB7982E6B01B42E052F80912D015C
:10050000811103C08FEF9FEF77C080912B0180FF97
:1005100005C08091E00082608093E000EB2CF02E1B
:10052000A12C8AEF882E892D8072682E892D8074E7
:10053000582E9AE3792EE114F10419F4AA2009F453
:1005400055C0892D0E944E02182F81110AC08A942D
:100550008820C1F261E070E080E090E00E94E30555
:10056000EACF90E0E816F9060CF41E2D692DCE01B5
:1005700001960E94DA018091E80085FF34C0812F46
:1005800090E0E81AF90A662029F01150A0F01092C4
:10059000F100FBCFF60197FE0AC0115050F02491F4
:1005A0002093F1003196F9CF21912093F100115061
:1005B000D8F7C80ED91EAA2019F07092E8000BC017
:1005C0008091E80085FD09C07092E800AA24A394F8
:1005D000E114F10441F0A12C06C0E114F10419F476
:1005E00051107092E80089818FBFA5CF5D9884E695
:1005F00080932F018B2D902F0F90DF91CF911F9122
:100600000F91FF90EF90DF90CF90BF90AF909F90B1
:100610008F907F906F905F9008951092E9001092F4
:100620002A011092290190932801809327010895AF
:10063000DF92EF92FF920F931F93CF93DF93D82E09
:100640008A017B01E40EF51EEB01CE15DF0571F08A
:10065000D7FE03C0FE01849101C088810E943E0143
:1006600021968111F2CF8FEF9FEF01C0C801DF917A
:10067000CF911F910F91FF90EF90DF900895AF926F
:10068000BF92DF92EF92FF920F931F93CF93DF936E
:100690005C018B01EB019BEFD92E2097C1F07E010D
:1006A000C134D1051CF080E4E82EF12C8091E800E3
:1006B00082FFFCCFC8018C1B9D0B6E2D8A0D9B1DEC
:1006C0000E943101D092E800CE19DF09E6CFC801BF
:1006D000DF91CF911F910F91FF90EF90DF90BF902E
:1006E000AF9008951F920F920FB60F921124CF92E0
:1006F000DF92EF92FF920F931F932F933F934F93AD
:100700005F936F937F938F939F93AF93BF93EF9379
:10071000FF93CF93DF93CDB7DEB76C97DEBFCDBF2E
:100720001092E9008091E80083FF17C168E0CE01D4
:1007300045960E94310182EF8093E8008D8987FF02
:1007400005C09091E80090FFFCCF03C09EEF90930E
:10075000E800982F907609F0D8C09E894F89588D6F
:100760002F89188D91110CC0803829F480912C01AB
:100770008093F10002C01092F1001092F100E6C0E7
:10078000913051F48111E2C04130510509F0DEC0D1
:1007900080912C018D7F0BC0933061F48111D6C004
:1007A0004130510509F0D2C080912C0182608093C4
:1007B0002C01CCC0953049F48091E80080FFFCCF3B
:1007C000822F80688093E300C1C0963009F070C02A
:1007D000EB8CFC8C123069F580E090E00E940D03F8
:1007E0000E94C40199E09E012F5F3F4F6901F9010A
:1007F000292F11922A95E9F799831A8391E09E8314
:1008000090EA98879AEF99872091290130912A01DF
:10081000275F3F4F3C832B838D83C7010E940D03CD
:1008200049E050E0B60180E00E9418030E94C40134
:100830008DC0C7010E940D030E94A708BE016B5E18
:100840007F4F0E944B08009719F00CF07FC082C0C8
:10085000113009F470C0133009F07CC08F898823EF
:1008600009F46CC0823029F440E86BE088EE90E037
:1008700006C0813039F440E86BE08CED90E00E94D6
:100880006C0156C0833009F065C00E94A7088E0134
:100890000F5F1F4FB8010E946A08F8010190002005
:1008A000E9F73197BF01601B710B40E0C801E7CF4A
:1008B000973009F44FC0983021F481E08093F10023
:1008C00045C0993009F042C0837009F043C0E1E0AF
:1008D000F1E081E031E096E32081211109C08EE74B
:1008E0008093EA001092EA008F8980932D012EC038
:1008F0008093E9003093EB0021912093EC009093DA
:10090000ED008F5F873041F7EACF8B8D9C8D0E9481
:100910000D03898D811105C0CE0145960E948A077D
:1009200007C00E94A708BE016B5E7F4F0E94890826
:10093000882381F00BC06AEC70E002C064EF70E0C5
:10094000FB01449150E080E80E9418038EEF8093F1
:10095000E80003C081E28093EB006C960FB6F89438
:10096000DEBF0FBECDBFDF91CF91FF91EF91BF9161
:10097000AF919F918F917F916F915F914F913F9137
:100980002F911F910F91FF90EF90DF90CF900F90DC
:100990000FBE0F901F9018958093E9008091F20090
:1009A000882319F08AE38093E80008951F920F923C
:1009B0000FB60F9211242F933F934F935F936F9332
:1009C0007F938F939F93AF93BF93CF93EF93FF93B7
:1009D000C091E1008091E100837F8093E100C3FF3B
:1009E0000FC01092E90081E08093EB001092EC00C0
:1009F00082E38093ED0010922D0188E08093F00057
:100A0000C2FF19C083E00E94CC0480912F0188238B
:100A100039F080912F01815080932F01882389F133
:100A200080912E01882339F080912E01815080938E
:100A30002E01882341F1C4FF10C08091E2008E7E18
:100A400081608093E2008091E1008F7E8093E100DD
:100A500080912B018E7E806111C0C0FF16C08091F5
:100A6000E2008E7E80618093E2008091E1008E7EC4
:100A70008093E10080912B018E7E816080932B0119
:100A800004C05D9ACDCF289AD6CFFF91EF91CF9138
:100A9000BF91AF919F918F917F916F915F914F9196
:100AA0003F912F910F900FBE0F901F9018951092AD
:100AB0002D0110922C0110922B010E94A101809116
:100AC000E1008E7E8093E1008DE08093E200559AF4
:100AD000209AEEEFFFE7859194918B3F9C4D19F49E
:100AE00081E08093890108951F920F920FB60F92B3
:100AF00011242F933F938F939F93AF93BF93809134
:100B0000310190913201A0913301B09134013091C3
:100B1000300123E0230F2D3720F40196A11DB11DD4
:100B200005C026E8230F0296A11DB11D20933001B8
:100B30008093310190933201A0933301B09334013B
:100B40008091350190913601A0913701B091380123
:100B50000196A11DB11D8093350190933601A0939C
:100B60003701B0933801BF91AF919F918F913F9121
:100B70002F910F900FBE0F901F9018953FB7F894CC
:100B80008091350190913601A0913701B0913801E3
:100B900026B5A89B05C02F3F19F00196A11DB11DD8
:100BA0003FBFBA2FA92F982F8827820F911DA11D13
:100BB000B11DBC01CD0142E0660F771F881F991F50
:100BC0004A95D1F708958F929F92AF92BF92CF929C
:100BD000DF92EF92FF926B017C010E94BE054B01F8
:100BE0005C01C114D104E104F10401F10E94210867
:100BF0000E94BE05DC01CB0188199909AA09BB092D
:100C0000883E9340A105B10560F321E0C21AD108E6
:100C1000E108F10888EE880E83E0981EA11CB11C43
:100C2000C114D104E104F10419F7DBCFFF90EF9078
:100C3000DF90CF90BF90AF909F908F900895789461
:100C400084B5826084BD84B5816084BD85B58260D1
:100C500085BD85B5816085BDEEE6F0E0808181606F
:100C60008083E1E8F0E0108280818260808380816F
:100C700081608083E0E8F0E0808181608083E1E949
:100C8000F0E0808182608083808181608083E0E900
:100C9000F0E0808181608083E1ECF0E0808184601D
:100CA0008083808182608083808181608083E3ECA7
:100CB000F0E0808181608083E0ECF0E08081826000
:100CC0008083E2ECF0E0808181608083EAE7F0E0FD
:100CD0008081846080838081826080838081816064
:100CE0008083808180688083089590E0FC01319743
:100CF000EF30F105B0F5EA5AFF4F0C94BB08809134
:100D000080008F7703C0809180008F7D809380006A
:100D1000089580918000877FF9CF84B58F7702C0D6
:100D200084B58F7D84BD0895809190008F7707C032
:100D3000809190008F7D03C080919000877F809389
:100D4000900008958091C0008F7703C08091C0000B
:100D50008F7D8093C00008958091C200877F80932B
:100D6000C2000895CF93DF9390E0FC01E95EFE4F4F
:100D70002491FC01EA5CFE4F8491882361F190E0AC
:100D8000880F991FFC01ED59FE4FC591D491FC01CC
:100D9000EB5AFE4FA591B491611109C09FB7F89429
:100DA0008881209582238883EC912E230BC06230AA
:100DB00061F49FB7F8948881322F3095832388831C
:100DC000EC912E2B2C939FBF06C08FB7F894E8812F
:100DD0002E2B28838FBFDF91CF9108951F93CF9340
:100DE000DF93282F30E0F901E850FF4F8491F9019B
:100DF000E95EFE4FD491F901EA5CFE4FC491CC2329
:100E0000C1F0162F81110E947506EC2FF0E0EE0F55
:100E1000FF1FEB5AFE4FA591B4919FB7F8941111A3
:100E200004C08C91D095D82302C0EC91DE2BDC93CA
:100E30009FBFDF91CF911F910895CF93DF931F92B2
:100E4000CDB7DEB76983DC01ED91FC910280F381BF
:100E5000E02D41E050E0BE016F5F7F4F09950F909C
:100E6000DF91CF910895CF93DF93EC018C859D8521
:100E700097FF05C082E00E9437029D878C878C8592
:100E80009D85DF91CF91089583E00E944E0290E00E
:100E9000089583E00C94CC04FC018485958597FD2E
:100EA00006C082E00E94E20190E00196089582E08F
:100EB0000E94E20190E00895FC018485958597FDEC
:100EC00005C02FEF3FEF35872487089582E00C940B
:100ED0003702CF93DF93EC0180911201882331F028
:100EE00083E00E9468021816190634F081E090E051
:100EF0009B838A8380E090E0DF91CF910895FC018D
:100F000090819E5F908342E450E061E771E080E869
:100F10000C941803FC0181819081913A59F481323B
:100F200009F05CC047E050E06BE071E080E00E94B7
:100F3000180352C0913209F051C0833269F48281A2
:100F40009381A0E0B0E08093070190930801A09303
:100F50000901B0930A0140C0803239F467E070E0C3
:100F60008BE091E00E943F0305C08232A9F58281A7
:100F70008093120180918901882319F0EEEFFAE045
:100F800002C0E0E0F8E080910B0190910C01A0918B
:100F90000D01B0910E01803B9440A105B10501F512
:100FA0008091120180FD1CC0EE3F2AE0F20731F073
:100FB000808191819093FF0A8093FE0A87E797E7EB
:100FC000918380839BE088E10FB6F894A895809385
:100FD00060000FBE9093600081E0089580E0089566
:100FE0000FB6F894A89580916000886180936000A6
:100FF000109260000FBEA895EE3F8AE0F80739F026
:101000008091FE0A9091FF0A91838083E5CF109230
:10101000FF0A1092FE0AE0CFE9E3F1E013821282A8
:1010200088EE93E0A0E0B0E084839583A683B78345
:1010300087E191E0918380838FEF9FEF958784878D
:1010400008950895EF92FF920F931F93CF93DF932C
:101050007B01FC01C281D38100E010E0209781F088
:10106000E881F9810280F381E02DB701CE01099575
:1010700097FD08C0080F191F0884D985C02DEECF31
:10108000C80102C08FEF9FEFDF91CF911F910F91A9
:10109000FF90EF9008950F931F93CF93DF938B01F1
:1010A000FC01C281D381209771F0E881F98104802D
:1010B000F581E02DB801CE010995009731F408843F
:1010C000D985C02DF0CF80E090E0DF91CF911F91C6
:1010D0000F9108950F931F93CF93DF938B01FC0122
:1010E000C281D381209771F0E881F9810680F78170
:1010F000E02DB801CE010995080F111D0884D9858E
:10110000C02DF0CFF8011082DF91CF911F910F9188
:1011100008950F931F93CF93DF938B01FC01C2813E
:10112000D381209771F0E881F9810190F081E02D61
:10113000B801CE010995811105C00884D985C02D5B
:10114000F0CF80E0DF91CF911F910F9108958091B2
:101150008E0181110DC082E080938A0184E080932A
:101160008B0110928D0110928C0181E080938E0191
:101170008AE891E00895EE0FFF1F0590F491E02DAD
:061180000994F894FFCF72
:1011860000C18081000000FFFFFFFF00E1000000BA
:10119600000000000000001D076907440749074CCE
:0611A600075C073307009F
:00000001FF
