:100000000C9463000C948B000C948B000C948B006C
:100010000C948B000C948B000C948B000C948B0034
:100020000C948B000C948B000C948B000C948B0024
:100030000C948B000C948B000C948B000C948B0014
:100040000C9446070C948B000C94D7040C9409056F
:100050000C948B000C948B000C948B000C948B00F4
:100060000C948B000C948B0000000008000201002F
:100070000003040700000000000000000102040863
:100080001020408001020408102001020408102002
:10009000040404040404040402020202020203032E
:1000A00003030303000000002300260029000000D2
:1000B0000000250028002B0000000000240027007D
:1000C0002A008301390511241FBECFEFD8E0DEBF1F
:1000D000CDBF11E0A0E0B1E0EAE0F6E102C005909A
:1000E0000D92AA34B107D9F722E0AAE4B1E001C029
:1000F0001D92AA31B207E1F710E0C3E6D0E004C0D8
:100100002197FE010E94FD0AC136D107C9F70E945E
:1001100067050C94030B0C94000060E08FE00E94D4
:100120007D0826E040E855E260E070E084E791E079
:100130000E946E0420E042E060E186E591E00E94CA
:10014000D60964EF71E080E090E00E94B50761E0BD
:1001500087E00E947D0860E08AE00E947D0860E000
:1001600088E00E947D0860E089E00C947D088FE0C3
:100170000E943708BC01990F880B990B0E947C02E2
:1001800020E030E04AEF53E40E942C0320E030EC02
:100190004FE754E40E94080260934A0170934B01B8
:1001A00080934C0190934D016093520170935301E1
:1001B000809354019093550126E636E646EE5FE3C0
:1001C0000E942C0320E030E040E052E40E949701BE
:1001D00060934E0170934F018093500190935101B1
:1001E00040E060E086E591E00E94BB0965E071E0D7
:1001F00086E591E00E94B50540915201509153016E
:10020000609154017091550122E030E086E591E063
:100210000E9444078AE00E94E8089093730180934B
:10022000720188E00E94E808909371018093700148
:1002300089E00E94E80890936F0180936E012091FD
:100240007201309173012130310551F42091020186
:10025000309103012F5F3F4F309303012093020140
:1002600020917001309171012130310551F42091BC
:100270000201309103012150310930930301209391
:100280000201019741F48091020190910301909342
:100290000101809300016091000170910101072E1E
:1002A000000C880B990B0E947C0220914A0130912E
:1002B0004B0140914C0150914D010E94030287FF78
:1002C00002C061E001C060E087E00E94B90841E03F
:1002D00060E086E591E00E94BB0962E171E086E59D
:1002E00091E00E94B50560910201709103014AE01E
:1002F00050E086E591E00E94620668EE73E080E0DF
:1003000090E00C94B507CF92EF920F9382E0C82E45
:1003100093E0E92E04E025E04BE06CE086E591E017
:100320000E947B0A0F91EF90CF9008955058BB2701
:10033000AA270E94AE010C94F2020E94E40238F057
:100340000E94EB0220F039F49F3F19F426F40C943C
:10035000E1020EF4E095E7FB0C94DB02E92F0E942A
:10036000030358F3BA17620773078407950720F051
:1003700079F4A6F50C9425030EF4E0950B2EBA2F14
:10038000A02D0B01B90190010C01CA01A00111249B
:10039000FF27591B99F0593F50F4503E68F11A1647
:1003A000F040A22F232F342F4427585FF3CF4695D8
:1003B00037952795A795F0405395C9F77EF41F16FA
:1003C000BA0B620B730B840BBAF09150A1F0FF0FC4
:1003D000BB1F661F771F881FC2F70EC0BA0F621FB0
:1003E000731F841F48F4879577956795B795F795A0
:1003F0009E3F08F0B0CF9395880F08F09927EE0F35
:100400009795879508950E94B70208F481E00895B2
:100410000E941C020C94F2020E94EB0258F00E940F
:10042000E40240F029F45F3F29F00C94DB02511103
:100430000C9426030C94E1020E94030368F39923B1
:10044000B1F3552391F3951B550BBB27AA276217D0
:100450007307840738F09F5F5F4F220F331F441FDD
:10046000AA1FA9F335D00E2E3AF0E0E832D0915011
:100470005040E695001CCAF72BD0FE2F29D0660FFE
:10048000771F881FBB1F261737074807AB07B0E841
:1004900009F0BB0B802DBF01FF2793585F4F3AF047
:1004A0009E3F510578F00C94DB020C9426035F3FCD
:1004B000E4F3983ED4F3869577956795B795F795CD
:1004C0009F5FC9F7880F911D9695879597F90895B5
:1004D000E1E0660F771F881FBB1F62177307840751
:1004E000BA0720F0621B730B840BBA0BEE1F88F760
:1004F000E0950895E89409C097FB3EF490958095A7
:10050000709561957F4F8F4F9F4F9923A9F0F92FD9
:1005100096E9BB279395F695879577956795B79557
:10052000F111F8CFFAF4BB0F11F460FF1BC06F5F3D
:100530007F4F8F4F9F4F16C0882311F096E911C04F
:10054000772321F09EE8872F762F05C0662371F070
:1005500096E8862F70E060E02AF09A95660F771F84
:10056000881FDAF7880F9695879597F90895990F60
:100570000008550FAA0BE0E8FEEF16161706E8076D
:10058000F907C0F012161306E407F50798F0621B8E
:10059000730B840B950B39F40A2661F0232B242B63
:1005A000252B21F408950A2609F4A140A6958FEF82
:1005B000811D811D089597F99F6780E870E060E0D4
:1005C00008959FEF80EC089500240A9416161706EC
:1005D00018060906089500240A9412161306140634
:1005E00005060895092E0394000C11F4882352F097
:1005F000BB0F40F4BF2B11F460FF04C06F5F7F4F4F
:100600008F4F9F4F089557FD9058440F551F59F035
:100610005F3F71F04795880F97FB991F61F09F3FEF
:1006200079F087950895121613061406551FF2CF18
:100630004695F1DF08C0161617061806991FF1CF68
:1006400086957105610508940895E894BB2766278F
:100650007727CB0197F908950E943F030C94F2028B
:100660000E94E40238F00E94EB0220F0952311F082
:100670000C94DB020C94E10211240C9426030E94DA
:10068000030370F3959FC1F3950F50E0551F629FD0
:10069000F001729FBB27F00DB11D639FAA27F00DDB
:1006A000B11DAA1F649F6627B00DA11D661F829F02
:1006B0002227B00DA11D621F739FB00DA11D621FE7
:1006C000839FA00D611D221F749F3327A00D611D04
:1006D000231F849F600D211D822F762F6A2F1124E6
:1006E0009F5750409AF0F1F088234AF0EE0FFF1F19
:1006F000BB1F661F771F881F91505040A9F79E3F70
:10070000510580F00C94DB020C9426035F3FE4F368
:10071000983ED4F3869577956795B795F795E795C5
:100720009F5FC1F7FE2B880F911D9695879597F9CE
:100730000895FC01918D228D892F90E0805C9F4F60
:10074000821B91098F7399270895FC01918D828DE9
:10075000981731F0828DE80FF11D858D90E0089596
:100760008FEF9FEF0895FC01918D828D981761F0B6
:10077000828DDF01A80FB11D5D968C91928D9F5FD8
:100780009F73928F90E008958FEF9FEF0895FC0183
:10079000538D448D252F30E0842F90E0821B930BE6
:1007A000541710F0CF960895019708958FE295E0C1
:1007B000892B49F080E090E0892B29F00E942F05D9
:1007C00081110C9400000895FC01848DDF01A80FB5
:1007D000B11DA35ABF4F2C91848D90E001968F7369
:1007E0009927848FA689B7892C93A089B1898C9188
:1007F00080648C93938D848D981306C00288F3894E
:10080000E02D80818F7D80830895EF92FF920F937A
:100810001F93CF93DF93EC0181E0888F9B8D8C8DAC
:10082000981305C0E889F989808185FD24C0F62EDA
:100830000B8D10E00F5F1F4F0F731127E02E8C8D73
:10084000E8120CC00FB607FCFACFE889F98980815D
:1008500085FFF5CFCE010E94E403F1CF8B8DFE0121
:10086000E80FF11DE35AFF4FF0820B8FEA89FB89F5
:100870008081806207C0EE89FF896083E889F989F9
:1008800080818064808381E090E0DF91CF911F912F
:100890000F91FF90EF900895CF93DF93EC01888D37
:1008A0008823C9F0EA89FB89808185FD05C0A88974
:1008B000B9898C9186FD0FC00FB607FCF5CF8081FA
:1008C00085FFF2CFA889B9898C9185FFEDCFCE0144
:1008D0000E94E403E7CFDF91CF910895CF92DF929A
:1008E000EF92FF921F93CF93DF93EC016A017B019C
:1008F000122FE889F98982E080834115514E610504
:100900007105B1F060E079E08DE390E0A701960118
:100910000E94DB0ADA01C9010197A109B109B69564
:10092000A795979587959C01211580E13807A8F038
:10093000E889F989108260E874E88EE190E0A70107
:1009400096010E94DB0ADA01C9010197A109B109E8
:10095000B695A795979587959C01EC85FD85308385
:10096000EE85FF852083188EEC89FD891083EA8946
:10097000FB89808180618083EA89FB89808188602E
:100980008083EA89FB89808180688083EA89FB898A
:1009900080818F7D8083DF91CF911F91FF90EF90B9
:1009A000DF90CF90089580E090E0089508951F9221
:1009B0000F920FB60F9211242F938F939F93EF9363
:1009C000FF93E0918401F09185018081E0918A019B
:1009D000F0918B0182FD12C0908180918D018F5F1B
:1009E0008F7320918E01821751F0E0918D01F0E01C
:1009F000EC58FE4F958F80938D0101C08081FF914F
:100A0000EF919F918F912F910F900FBE0F901F909C
:100A100018951F920F920FB60F9211242F933F93A8
:100A20004F935F936F937F938F939F93AF93BF93F6
:100A3000EF93FF9384E791E00E94E403FF91EF912D
:100A4000BF91AF919F918F917F916F915F914F91E6
:100A50003F912F910F900FBE0F901F90189584E734
:100A600091E00E94990321E0892B09F420E0822F74
:100A70000895E4E7F1E01382128288EE93E0A0E0AB
:100A8000B0E084839583A683B78381E291E091836C
:100A9000808385EC90E09587848784EC90E097874D
:100AA000868780EC90E0918B808B81EC90E0938B3B
:100AB000828B82EC90E0958B848B86EC90E0978B18
:100AC000868B118E128E138E148E089508950E94B7
:100AD000FC070E9466050E948D00C6EDD3E00E94CF
:100AE000B7002097E1F30E94D603F9CFCF92DF92AF
:100AF000EF92FF920F931F93CF93DF936C017A01D4
:100B00008B01C0E0D0E0CE15DF0581F0D8016D91FA
:100B10008D01D601ED91FC910190F081E02DC6018F
:100B20000995892B11F02196EECF7E01C701DF9147
:100B3000CF911F910F91FF90EF90DF90CF9008958C
:100B40006115710579F0FB0101900020E9F73197FB
:100B5000AF01461B570BDC01ED91FC910280F38144
:100B6000E02D099480E090E008950C94A005DC014C
:100B7000ED91FC910190F081E02D09948F929F926C
:100B8000AF92BF92EF92FF920F931F93CF93DF9399
:100B9000CDB7DEB7A1970FB6F894DEBF0FBECDBFBD
:100BA0007C01FA01CB0119A2223008F42AE08E015F
:100BB0000F5D1F4F822E912CA12CB12CBF01A501DE
:100BC00094010E94DB0AF901CA01015011096A303F
:100BD00010F4605D01C0695CD8016C93232B242B59
:100BE000252B61F7B801C7010E94A005A1960FB699
:100BF000F894DEBF0FBECDBFDF91CF911F910F9153
:100C0000FF90EF90BF90AF909F908F900895211527
:100C1000310541F4DC01ED91FC910190F081E02D72
:100C2000642F09940C94BE059A01AB0160E070E05A
:100C30000C940706CF92DF92EF92FF920F931F93CF
:100C4000CF93DF932115310581F4DC01ED91FC9107
:100C50000190F081E02D642FDF91CF911F910F91D2
:100C6000FF90EF90DF90CF9009942A30310501F585
:100C700077FF1DC06A017B01EC016DE20E94B705A0
:100C80008C0144275527BA014C195D096E097F096B
:100C90002AE0CE010E94BE05800F911FDF91CF9107
:100CA0001F910F91FF90EF90DF90CF9008952AE071
:100CB000DF91CF911F910F91FF90EF90DF90CF9038
:100CC0000C94BE059A01AB01770F660B770B0C9461
:100CD0001A067F928F929F92AF92BF92CF92DF922D
:100CE000EF92FF920F931F93CF93DF938C016A01D2
:100CF0007B01722E9A01AB01C701B6010E94D60A90
:100D0000882319F062E371E027C046015701E89497
:100D1000B7F82FEF3FEF4FE75FE7C501B4010E943F
:100D2000D60A81110DC02FEF3FEF4FE75FE7C501F6
:100D3000B4010E94030218161CF466E371E00CC0B3
:100D40002FEF3FEF4FE75FE4C701B6010E94D10AE2
:100D5000181694F46AE371E0C801DF91CF911F91F6
:100D60000F91FF90EF90DF90CF90BF90AF909F904A
:100D70008F907F900C94A0052FEF3FEF4FE75FEC33
:100D8000C701B6010E94030287FDE4CF20E030E0F6
:100D9000A901C701B6010E94030287FF0AC06DE2E4
:100DA000C8010E94B705EC01F7FAF094F7F8F09447
:100DB00002C0C0E0D0E0B12C60E070E080E09FE3D2
:100DC0007B1441F020E030E040E251E40E94080250
:100DD000B394F6CFA70196010E9497016B017C01A5
:100DE0000E94A20A4B015C012AE0AB01BC01C801D0
:100DF0000E94BE05C80FD91F7720B9F1C501B40103
:100E00000E947A029B01AC01C701B6010E949601C3
:100E10006B017C016EE2C8010E94B705C80FD91FA3
:100E200020E030E040E251E4C701B6010E942C030B
:100E30004B015C010E94A20A6B017C014AE050E078
:100E4000C8010E941406C80FD91FB60180E090E0C7
:100E50000E947A029B01AC01C501B4010E94960177
:100E60006B017C017A947110DBCFCE01DF91CF91C1
:100E70001F910F91FF90EF90DF90CF90BF90AF90B8
:100E80009F908F907F9008950C9469061F920F9207
:100E90000FB60F9211242F933F938F939F93AF938D
:100EA000BF938091120290911302A0911402B0910D
:100EB00015023091110223E0230F2D3720F4019603
:100EC000A11DB11D05C026E8230F0296A11DB11D6D
:100ED000209311028093120290931302A0931402A4
:100EE000B09315028091160290911702A0911802FA
:100EF000B09119020196A11DB11D80931602909325
:100F00001702A0931802B0931902BF91AF919F915D
:100F10008F913F912F910F900FBE0F901F901895BA
:100F20003FB7F8948091160290911702A091180291
:100F3000B091190226B5A89B05C02F3F19F0019664
:100F4000A11DB11D3FBFBA2FA92F982F8827820F4F
:100F5000911DA11DB11DBC01CD0142E0660F771F9F
:100F6000881F991F4A95D1F708958F929F92AF924B
:100F7000BF92CF92DF92EF92FF926B017C010E94B1
:100F800090074B015C01C114D104E104F10401F1AB
:100F90000E94A10A0E949007DC01CB0188199909DF
:100FA000AA09BB09883E9340A105B10560F321E081
:100FB000C21AD108E108F10888EE880E83E0981E75
:100FC000A11CB11CC114D104E104F10419F7DBCF59
:100FD000FF90EF90DF90CF90BF90AF909F908F9059
:100FE00008958230910538F0880F991F880F991F56
:100FF00005970197F1F70895789484B5826084BDD0
:1010000084B5816084BD85B5826085BD85B581600C
:1010100085BDEEE6F0E0808181608083E1E8F0E06C
:101020001082808182608083808181608083E0E89B
:10103000F0E0808181608083E1EBF0E0808184607A
:101040008083E0EBF0E0808181608083EAE7F0E07C
:1010500080818460808380818260808380818160E0
:1010600080838081806880831092C10008958E30D3
:1010700008F08E502091040190E4299F90011124E2
:101080008770822B80937C0080917A0080648093AB
:101090007A0080917A0086FDFCCF809178002091C3
:1010A000790090E0922B0895833081F028F481300C
:1010B00099F08230A1F008958730A9F08830B9F016
:1010C0008430D1F4809180008F7D03C080918000B6
:1010D0008F7780938000089584B58F7702C084B5A0
:1010E0008F7D84BD08958091B0008F7703C080917B
:1010F000B0008F7D8093B0000895CF93DF9390E090
:10110000FC01E458FF4F2491FC01E057FF4F84910C
:10111000882361F190E0880F991FFC01E854FF4F8C
:10112000C591D491FC01E255FF4FA591B491611195
:1011300009C09FB7F8948881209582238883EC9119
:101140002E230BC0623061F49FB7F8948881322F50
:10115000309583238883EC912E2B2C939FBF06C060
:101160008FB7F894E8812E2B28838FBFDF91CF9122
:1011700008951F93CF93DF93282F30E0F901E859AA
:10118000FF4F8491F901E458FF4FD491F901E057E2
:10119000FF4FC491CC23C1F0162F81110E94540837
:1011A000EC2FF0E0EE0FFF1FE255FF4FA591B49139
:1011B0009FB7F894111104C08C91D095D82302C028
:1011C000EC91DE2BDC939FBFDF91CF911F910895AF
:1011D000CF93DF93282F30E0F901E859FF4F849136
:1011E000F901E458FF4FD491F901E057FF4FC49142
:1011F000CC2391F081110E945408EC2FF0E0EE0F07
:10120000FF1FEC55FF4FA591B491EC91ED2381E0C8
:1012100090E021F480E002C080E090E0DF91CF9187
:101220000895CF93DF93EC0160E08E810E94B908AE
:1012300081E090E00E94F10761E08E810E94B90890
:1012400081E090E00E94F10760E08E810E94B90881
:1012500084E690E0DF91CF910C94F107CF92DF927A
:10126000EF92FF920F931F93CF93DF936C017C015A
:1012700087E0E80EF11CC0E0D0E0062F10E0B801D6
:101280000C2E02C0759567950A94E2F76170F7011C
:1012900081917F010E94B9082196C430D10579F768
:1012A000C601DF91CF911F910F91FF90EF90DF90DA
:1012B000CF900C941109CF92DF92EF92FF920F938F
:1012C0001F93CF93DF936C017C0187E0E80EF11C44
:1012D000C0E0D0E0062F10E0B8010C2E02C07595DA
:1012E00067950A94E2F76170F70181917F010E948E
:1012F000B9082196C830D10579F7C601DF91CF91A1
:101300001F910F91FF90EF90DF90CF900C941109F7
:101310001F93CF93DF93EC01162F642F8C810E94D3
:10132000B9088D818F3F19F060E00E94B9088F8560
:10133000612F84FF06C0CE01DF91CF911F910C94E5
:101340005B0970E084E0759567958A95E1F7CE01B9
:101350000E942E09612FCE01DF91CF911F910C9435
:101360002E0940E00C94880961E00E94B10980EDEB
:1013700097E00C94F107FC01443008F043E08389C6
:10138000481710F04FEF480FDF01A40FB11D54961E
:101390009C91690F6068CF010C94B109FC016089D0
:1013A000262F2460208B6C600C94B109EF92FF9281
:1013B0000F931F93CF93DF93EC01423018F08F858A
:1013C00088608F874B8B1C8A80E48D8B6E8B70E0DE
:1013D000605C7F4F6F8B222329F0413019F48F8599
:1013E00084608F8761E08C810E947D088D818F3FB2
:1013F00019F061E00E947D0861E08E810E947D0805
:101400007E0187E0E80EF11C00E010E08F8584FD8E
:1014100003C084E090E002C088E090E0081719075C
:101420004CF461E0F70181917F010E947D080F5F1C
:101430001F4FECCF80E593EC0E94F10760E08C81B8
:101440000E94B90860E08E810E94B9088D818F3FAB
:1014500019F060E00E94B9086F8564FD1DC063E06B
:10146000CE010E942E0984E991E10E94F10763E018
:10147000CE010E942E0984E991E10E94F10763E008
:10148000CE010E942E0986E990E00E94F10762E0F9
:10149000CE010E942E0916C06062CE010E94B109E1
:1014A00084E991E10E94F1076F856062CE010E949C
:1014B000B10986E990E00E94F1076F856062CE0174
:1014C0000E94B1096F856062CE010E94B10984E07B
:1014D000888BCE010E94CE09CE010E94B40982E021
:1014E000898B66E0CE01DF91CF911F910F91FF9024
:1014F000EF900C94B109CF92EF920F93FC011382FD
:10150000128282E491E09183808364838FEF8583EC
:10151000468327830087E186C28613861486158654
:101520001686178620E041E060E1CF010F91EF9031
:10153000CF900C94D60941E00E94880981E090E0A8
:10154000089508950E940B0388F09F5798F0B92FD3
:101550009927B751B0F0E1F0660F771F881F991FE8
:101560001AF0BA95C9F714C0B13091F00E94250362
:10157000B1E008950C942503672F782F8827B85F72
:1015800039F0B93FCCF3869577956795B395D9F740
:101590003EF490958095709561957F4F8F4F9F4F4A
:1015A00008950E94B70208F48FEF08950E94B702D1
:1015B000880B990B0895A1E21A2EAA1BBB1BFD01F3
:1015C0000DC0AA1FBB1FEE1FFF1FA217B307E40722
:1015D000F50720F0A21BB30BE40BF50B661F771F7A
:1015E000881F991F1A9469F760957095809590955A
:1015F0009B01AC01BD01CF010895EE0FFF1F0590C7
:0A160000F491E02D0994F894FFCF57
:10160A001E001E0001696E20446567726565433DD0
:10161A002000536574706F696E743A2000000000F0
:10162A000005047605C7034C049903B303A5030D0B
:10163A000A006E616E00696E66006F7666000000D1
:0A164A0000009B0A7605D304D604C5
:00000001FF
